{
  "_format": "hh-sol-artifact-1",
  "contractName": "DaiToken",
  "sourceName": "contracts/DaiToken.sol",
  "abi": [
    {
      "inputs": [],
      "stateMutability": "nonpayable",
      "type": "constructor"
    },
    {
      "inputs": [
        {
          "internalType": "address",
          "name": "spender",
          "type": "address"
        },
        {
          "internalType": "uint256",
          "name": "allowance",
          "type": "uint256"
        },
        {
          "internalType": "uint256",
          "name": "needed",
          "type": "uint256"
        }
      ],
      "name": "ERC20InsufficientAllowance",
      "type": "error"
    },
    {
      "inputs": [
        {
          "internalType": "address",
          "name": "sender",
          "type": "address"
        },
        {
          "internalType": "uint256",
          "name": "balance",
          "type": "uint256"
        },
        {
          "internalType": "uint256",
          "name": "needed",
          "type": "uint256"
        }
      ],
      "name": "ERC20InsufficientBalance",
      "type": "error"
    },
    {
      "inputs": [
        {
          "internalType": "address",
          "name": "approver",
          "type": "address"
        }
      ],
      "name": "ERC20InvalidApprover",
      "type": "error"
    },
    {
      "inputs": [
        {
          "internalType": "address",
          "name": "receiver",
          "type": "address"
        }
      ],
      "name": "ERC20InvalidReceiver",
      "type": "error"
    },
    {
      "inputs": [
        {
          "internalType": "address",
          "name": "sender",
          "type": "address"
        }
      ],
      "name": "ERC20InvalidSender",
      "type": "error"
    },
    {
      "inputs": [
        {
          "internalType": "address",
          "name": "spender",
          "type": "address"
        }
      ],
      "name": "ERC20InvalidSpender",
      "type": "error"
    },
    {
      "inputs": [],
      "name": "ReentrancyGuardReentrantCall",
      "type": "error"
    },
    {
      "anonymous": false,
      "inputs": [
        {
          "indexed": true,
          "internalType": "address",
          "name": "owner",
          "type": "address"
        },
        {
          "indexed": true,
          "internalType": "address",
          "name": "spender",
          "type": "address"
        },
        {
          "indexed": false,
          "internalType": "uint256",
          "name": "value",
          "type": "uint256"
        }
      ],
      "name": "Approval",
      "type": "event"
    },
    {
      "anonymous": false,
      "inputs": [
        {
          "indexed": true,
          "internalType": "address",
          "name": "from",
          "type": "address"
        },
        {
          "indexed": true,
          "internalType": "address",
          "name": "to",
          "type": "address"
        },
        {
          "indexed": false,
          "internalType": "uint256",
          "name": "value",
          "type": "uint256"
        }
      ],
      "name": "Transfer",
      "type": "event"
    },
    {
      "inputs": [
        {
          "internalType": "address",
          "name": "owner",
          "type": "address"
        },
        {
          "internalType": "address",
          "name": "spender",
          "type": "address"
        }
      ],
      "name": "allowance",
      "outputs": [
        {
          "internalType": "uint256",
          "name": "",
          "type": "uint256"
        }
      ],
      "stateMutability": "view",
      "type": "function"
    },
    {
      "inputs": [
        {
          "internalType": "address",
          "name": "spender",
          "type": "address"
        },
        {
          "internalType": "uint256",
          "name": "value",
          "type": "uint256"
        }
      ],
      "name": "approve",
      "outputs": [
        {
          "internalType": "bool",
          "name": "",
          "type": "bool"
        }
      ],
      "stateMutability": "nonpayable",
      "type": "function"
    },
    {
      "inputs": [
        {
          "internalType": "address",
          "name": "account",
          "type": "address"
        }
      ],
      "name": "balanceOf",
      "outputs": [
        {
          "internalType": "uint256",
          "name": "",
          "type": "uint256"
        }
      ],
      "stateMutability": "view",
      "type": "function"
    },
    {
      "inputs": [],
      "name": "claim",
      "outputs": [],
      "stateMutability": "nonpayable",
      "type": "function"
    },
    {
      "inputs": [],
      "name": "decimals",
      "outputs": [
        {
          "internalType": "uint8",
          "name": "",
          "type": "uint8"
        }
      ],
      "stateMutability": "view",
      "type": "function"
    },
    {
      "inputs": [],
      "name": "name",
      "outputs": [
        {
          "internalType": "string",
          "name": "",
          "type": "string"
        }
      ],
      "stateMutability": "view",
      "type": "function"
    },
    {
      "inputs": [],
      "name": "symbol",
      "outputs": [
        {
          "internalType": "string",
          "name": "",
          "type": "string"
        }
      ],
      "stateMutability": "view",
      "type": "function"
    },
    {
      "inputs": [],
      "name": "totalSupply",
      "outputs": [
        {
          "internalType": "uint256",
          "name": "",
          "type": "uint256"
        }
      ],
      "stateMutability": "view",
      "type": "function"
    },
    {
      "inputs": [
        {
          "internalType": "address",
          "name": "to",
          "type": "address"
        },
        {
          "internalType": "uint256",
          "name": "value",
          "type": "uint256"
        }
      ],
      "name": "transfer",
      "outputs": [
        {
          "internalType": "bool",
          "name": "",
          "type": "bool"
        }
      ],
      "stateMutability": "nonpayable",
      "type": "function"
    },
    {
      "inputs": [
        {
          "internalType": "address",
          "name": "from",
          "type": "address"
        },
        {
          "internalType": "address",
          "name": "to",
          "type": "address"
        },
        {
          "internalType": "uint256",
          "name": "value",
          "type": "uint256"
        }
      ],
      "name": "transferFrom",
      "outputs": [
        {
          "internalType": "bool",
          "name": "",
          "type": "bool"
        }
      ],
      "stateMutability": "nonpayable",
      "type": "function"
    }
  ],
  "bytecode": "0x608060405234801561001057600080fd5b506040518060400160405280600e81526020016d26b7b1b5902220a4902a37b5b2b760911b815250604051806040016040528060048152602001636d44414960e01b8152508160039081610064919061011d565b506004610071828261011d565b50506001600555506101db565b634e487b7160e01b600052604160045260246000fd5b600181811c908216806100a857607f821691505b6020821081036100c857634e487b7160e01b600052602260045260246000fd5b50919050565b601f82111561011857806000526020600020601f840160051c810160208510156100f55750805b601f840160051c820191505b818110156101155760008155600101610101565b50505b505050565b81516001600160401b038111156101365761013661007e565b61014a816101448454610094565b846100ce565b6020601f82116001811461017e57600083156101665750848201515b600019600385901b1c1916600184901b178455610115565b600084815260208120601f198516915b828110156101ae578785015182556020948501946001909201910161018e565b50848210156101cc5786840151600019600387901b60f8161c191681555b50505050600190811b01905550565b6107fc806101ea6000396000f3fe608060405234801561001057600080fd5b506004361061009e5760003560e01c80634e71d92d116100665780634e71d92d1461011857806370a082311461012257806395d89b411461014b578063a9059cbb14610153578063dd62ed3e1461016657600080fd5b806306fdde03146100a3578063095ea7b3146100c157806318160ddd146100e457806323b872dd146100f6578063313ce56714610109575b600080fd5b6100ab61019f565b6040516100b89190610645565b60405180910390f35b6100d46100cf3660046106af565b610231565b60405190151581526020016100b8565b6002545b6040519081526020016100b8565b6100d46101043660046106d9565b61024b565b604051601281526020016100b8565b61012061026f565b005b6100e8610130366004610716565b6001600160a01b031660009081526020819052604090205490565b6100ab6102d5565b6100d46101613660046106af565b6102e4565b6100e8610174366004610738565b6001600160a01b03918216600090815260016020908152604080832093909416825291909152205490565b6060600380546101ae9061076b565b80601f01602080910402602001604051908101604052809291908181526020018280546101da9061076b565b80156102275780601f106101fc57610100808354040283529160200191610227565b820191906000526020600020905b81548152906001019060200180831161020a57829003601f168201915b5050505050905090565b60003361023f8185856102f2565b60019150505b92915050565b600033610259858285610304565b610264858585610383565b506001949350505050565b6102776103e2565b3331806102be5760405162461bcd60e51b815260206004820152601060248201526f27379022aa24103a379036b4b93937b960811b60448201526064015b60405180910390fd5b6102c8338261040c565b506102d36001600555565b565b6060600480546101ae9061076b565b60003361023f818585610383565b6102ff8383836001610446565b505050565b6001600160a01b0383811660009081526001602090815260408083209386168352929052205460001981101561037d578181101561036e57604051637dc7a0d960e11b81526001600160a01b038416600482015260248101829052604481018390526064016102b5565b61037d84848484036000610446565b50505050565b6001600160a01b0383166103ad57604051634b637e8f60e11b8152600060048201526024016102b5565b6001600160a01b0382166103d75760405163ec442f0560e01b8152600060048201526024016102b5565b6102ff83838361051b565b60026005540361040557604051633ee5aeb560e01b815260040160405180910390fd5b6002600555565b6001600160a01b0382166104365760405163ec442f0560e01b8152600060048201526024016102b5565b6104426000838361051b565b5050565b6001600160a01b0384166104705760405163e602df0560e01b8152600060048201526024016102b5565b6001600160a01b03831661049a57604051634a1406b160e11b8152600060048201526024016102b5565b6001600160a01b038085166000908152600160209081526040808320938716835292905220829055801561037d57826001600160a01b0316846001600160a01b03167f8c5be1e5ebec7d5bd14f71427d1e84f3dd0314c0f7b2291e5b200ac8c7c3b9258460405161050d91815260200190565b60405180910390a350505050565b6001600160a01b03831661054657806002600082825461053b91906107a5565b909155506105b89050565b6001600160a01b038316600090815260208190526040902054818110156105995760405163391434e360e21b81526001600160a01b038516600482015260248101829052604481018390526064016102b5565b6001600160a01b03841660009081526020819052604090209082900390555b6001600160a01b0382166105d4576002805482900390556105f3565b6001600160a01b03821660009081526020819052604090208054820190555b816001600160a01b0316836001600160a01b03167fddf252ad1be2c89b69c2b068fc378daa952ba7f163c4a11628f55a4df523b3ef8360405161063891815260200190565b60405180910390a3505050565b602081526000825180602084015260005b818110156106735760208186018101516040868401015201610656565b506000604082850101526040601f19601f83011684010191505092915050565b80356001600160a01b03811681146106aa57600080fd5b919050565b600080604083850312156106c257600080fd5b6106cb83610693565b946020939093013593505050565b6000806000606084860312156106ee57600080fd5b6106f784610693565b925061070560208501610693565b929592945050506040919091013590565b60006020828403121561072857600080fd5b61073182610693565b9392505050565b6000806040838503121561074b57600080fd5b61075483610693565b915061076260208401610693565b90509250929050565b600181811c9082168061077f57607f821691505b60208210810361079f57634e487b7160e01b600052602260045260246000fd5b50919050565b8082018082111561024557634e487b7160e01b600052601160045260246000fdfea26469706673582212202eb07b6998a6dde6624bb44e5a0fac46c186274799beaef10f11475406e7d9c764736f6c634300081c0033",
  "linkReferences": {},
  "deployedLinkReferences": {}
}