{
  "_format": "hh-sol-artifact-1",
  "contractName": "DaiToken",
  "sourceName": "contracts/DaiToken.sol",
  "abi": [
    {
      "inputs": [],
      "stateMutability": "nonpayable",
      "type": "constructor"
    },
    {
      "inputs": [
        {
          "internalType": "address",
          "name": "spender",
          "type": "address"
        },
        {
          "internalType": "uint256",
          "name": "allowance",
          "type": "uint256"
        },
        {
          "internalType": "uint256",
          "name": "needed",
          "type": "uint256"
        }
      ],
      "name": "ERC20InsufficientAllowance",
      "type": "error"
    },
    {
      "inputs": [
        {
          "internalType": "address",
          "name": "sender",
          "type": "address"
        },
        {
          "internalType": "uint256",
          "name": "balance",
          "type": "uint256"
        },
        {
          "internalType": "uint256",
          "name": "needed",
          "type": "uint256"
        }
      ],
      "name": "ERC20InsufficientBalance",
      "type": "error"
    },
    {
      "inputs": [
        {
          "internalType": "address",
          "name": "approver",
          "type": "address"
        }
      ],
      "name": "ERC20InvalidApprover",
      "type": "error"
    },
    {
      "inputs": [
        {
          "internalType": "address",
          "name": "receiver",
          "type": "address"
        }
      ],
      "name": "ERC20InvalidReceiver",
      "type": "error"
    },
    {
      "inputs": [
        {
          "internalType": "address",
          "name": "sender",
          "type": "address"
        }
      ],
      "name": "ERC20InvalidSender",
      "type": "error"
    },
    {
      "inputs": [
        {
          "internalType": "address",
          "name": "spender",
          "type": "address"
        }
      ],
      "name": "ERC20InvalidSpender",
      "type": "error"
    },
    {
      "inputs": [],
      "name": "ReentrancyGuardReentrantCall",
      "type": "error"
    },
    {
      "anonymous": false,
      "inputs": [
        {
          "indexed": true,
          "internalType": "address",
          "name": "owner",
          "type": "address"
        },
        {
          "indexed": true,
          "internalType": "address",
          "name": "spender",
          "type": "address"
        },
        {
          "indexed": false,
          "internalType": "uint256",
          "name": "value",
          "type": "uint256"
        }
      ],
      "name": "Approval",
      "type": "event"
    },
    {
      "anonymous": false,
      "inputs": [
        {
          "indexed": true,
          "internalType": "address",
          "name": "from",
          "type": "address"
        },
        {
          "indexed": true,
          "internalType": "address",
          "name": "to",
          "type": "address"
        },
        {
          "indexed": false,
          "internalType": "uint256",
          "name": "value",
          "type": "uint256"
        }
      ],
      "name": "Transfer",
      "type": "event"
    },
    {
      "inputs": [
        {
          "internalType": "address",
          "name": "owner",
          "type": "address"
        },
        {
          "internalType": "address",
          "name": "spender",
          "type": "address"
        }
      ],
      "name": "allowance",
      "outputs": [
        {
          "internalType": "uint256",
          "name": "",
          "type": "uint256"
        }
      ],
      "stateMutability": "view",
      "type": "function"
    },
    {
      "inputs": [
        {
          "internalType": "address",
          "name": "spender",
          "type": "address"
        },
        {
          "internalType": "uint256",
          "name": "value",
          "type": "uint256"
        }
      ],
      "name": "approve",
      "outputs": [
        {
          "internalType": "bool",
          "name": "",
          "type": "bool"
        }
      ],
      "stateMutability": "nonpayable",
      "type": "function"
    },
    {
      "inputs": [
        {
          "internalType": "address",
          "name": "account",
          "type": "address"
        }
      ],
      "name": "balanceOf",
      "outputs": [
        {
          "internalType": "uint256",
          "name": "",
          "type": "uint256"
        }
      ],
      "stateMutability": "view",
      "type": "function"
    },
    {
      "inputs": [],
      "name": "claim",
      "outputs": [],
      "stateMutability": "nonpayable",
      "type": "function"
    },
    {
      "inputs": [],
      "name": "decimals",
      "outputs": [
        {
          "internalType": "uint8",
          "name": "",
          "type": "uint8"
        }
      ],
      "stateMutability": "view",
      "type": "function"
    },
    {
      "inputs": [
        {
          "internalType": "address",
          "name": "",
          "type": "address"
        }
      ],
      "name": "hasClaimed",
      "outputs": [
        {
          "internalType": "bool",
          "name": "",
          "type": "bool"
        }
      ],
      "stateMutability": "view",
      "type": "function"
    },
    {
      "inputs": [],
      "name": "name",
      "outputs": [
        {
          "internalType": "string",
          "name": "",
          "type": "string"
        }
      ],
      "stateMutability": "view",
      "type": "function"
    },
    {
      "inputs": [],
      "name": "symbol",
      "outputs": [
        {
          "internalType": "string",
          "name": "",
          "type": "string"
        }
      ],
      "stateMutability": "view",
      "type": "function"
    },
    {
      "inputs": [],
      "name": "totalSupply",
      "outputs": [
        {
          "internalType": "uint256",
          "name": "",
          "type": "uint256"
        }
      ],
      "stateMutability": "view",
      "type": "function"
    },
    {
      "inputs": [
        {
          "internalType": "address",
          "name": "to",
          "type": "address"
        },
        {
          "internalType": "uint256",
          "name": "value",
          "type": "uint256"
        }
      ],
      "name": "transfer",
      "outputs": [
        {
          "internalType": "bool",
          "name": "",
          "type": "bool"
        }
      ],
      "stateMutability": "nonpayable",
      "type": "function"
    },
    {
      "inputs": [
        {
          "internalType": "address",
          "name": "from",
          "type": "address"
        },
        {
          "internalType": "address",
          "name": "to",
          "type": "address"
        },
        {
          "internalType": "uint256",
          "name": "value",
          "type": "uint256"
        }
      ],
      "name": "transferFrom",
      "outputs": [
        {
          "internalType": "bool",
          "name": "",
          "type": "bool"
        }
      ],
      "stateMutability": "nonpayable",
      "type": "function"
    }
  ],
  "bytecode": "0x608060405234801561001057600080fd5b506040518060400160405280600e81526020016d26b7b1b5902220a4902a37b5b2b760911b815250604051806040016040528060048152602001636d44414960e01b8152508160039081610064919061011d565b506004610071828261011d565b50506001600555506101db565b634e487b7160e01b600052604160045260246000fd5b600181811c908216806100a857607f821691505b6020821081036100c857634e487b7160e01b600052602260045260246000fd5b50919050565b601f82111561011857806000526020600020601f840160051c810160208510156100f55750805b601f840160051c820191505b818110156101155760008155600101610101565b50505b505050565b81516001600160401b038111156101365761013661007e565b61014a816101448454610094565b846100ce565b6020601f82116001811461017e57600083156101665750848201515b600019600385901b1c1916600184901b178455610115565b600084815260208120601f198516915b828110156101ae578785015182556020948501946001909201910161018e565b50848210156101cc5786840151600019600387901b60f8161c191681555b50505050600190811b01905550565b6109a6806101ea6000396000f3fe608060405234801561001057600080fd5b50600436106100a95760003560e01c80634e71d92d116100715780634e71d92d1461012357806370a082311461012d57806373b2e80e1461015657806395d89b4114610179578063a9059cbb14610181578063dd62ed3e1461019457600080fd5b806306fdde03146100ae578063095ea7b3146100cc57806318160ddd146100ef57806323b872dd14610101578063313ce56714610114575b600080fd5b6100b66101cd565b6040516100c391906106da565b60405180910390f35b6100df6100da366004610744565b61025f565b60405190151581526020016100c3565b6002545b6040519081526020016100c3565b6100df61010f36600461076e565b610279565b604051601281526020016100c3565b61012b61029d565b005b6100f361013b3660046107ab565b6001600160a01b031660009081526020819052604090205490565b6100df6101643660046107ab565b60066020526000908152604090205460ff1681565b6100b661036a565b6100df61018f366004610744565b610379565b6100f36101a23660046107cd565b6001600160a01b03918216600090815260016020908152604080832093909416825291909152205490565b6060600380546101dc90610800565b80601f016020809104026020016040519081016040528092919081815260200182805461020890610800565b80156102555780601f1061022a57610100808354040283529160200191610255565b820191906000526020600020905b81548152906001019060200180831161023857829003601f168201915b5050505050905090565b60003361026d818585610387565b60019150505b92915050565b600033610287858285610399565b610292858585610418565b506001949350505050565b6102a5610477565b3360009081526006602052604090205460ff161561031d5760405162461bcd60e51b815260206004820152602a60248201527f596f75206861766520616c726561647920636c61696d656420796f757220667260448201526932b2903a37b5b2b7399760b11b60648201526084015b60405180910390fd5b336000818152600660205260409020805460ff1916600117905561035e90610343601290565b61034e90600a610937565b610359906064610946565b6104a1565b6103686001600555565b565b6060600480546101dc90610800565b60003361026d818585610418565b61039483838360016104db565b505050565b6001600160a01b03838116600090815260016020908152604080832093861683529290522054600019811015610412578181101561040357604051637dc7a0d960e11b81526001600160a01b03841660048201526024810182905260448101839052606401610314565b610412848484840360006104db565b50505050565b6001600160a01b03831661044257604051634b637e8f60e11b815260006004820152602401610314565b6001600160a01b03821661046c5760405163ec442f0560e01b815260006004820152602401610314565b6103948383836105b0565b60026005540361049a57604051633ee5aeb560e01b815260040160405180910390fd5b6002600555565b6001600160a01b0382166104cb5760405163ec442f0560e01b815260006004820152602401610314565b6104d7600083836105b0565b5050565b6001600160a01b0384166105055760405163e602df0560e01b815260006004820152602401610314565b6001600160a01b03831661052f57604051634a1406b160e11b815260006004820152602401610314565b6001600160a01b038085166000908152600160209081526040808320938716835292905220829055801561041257826001600160a01b0316846001600160a01b03167f8c5be1e5ebec7d5bd14f71427d1e84f3dd0314c0f7b2291e5b200ac8c7c3b925846040516105a291815260200190565b60405180910390a350505050565b6001600160a01b0383166105db5780600260008282546105d0919061095d565b9091555061064d9050565b6001600160a01b0383166000908152602081905260409020548181101561062e5760405163391434e360e21b81526001600160a01b03851660048201526024810182905260448101839052606401610314565b6001600160a01b03841660009081526020819052604090209082900390555b6001600160a01b03821661066957600280548290039055610688565b6001600160a01b03821660009081526020819052604090208054820190555b816001600160a01b0316836001600160a01b03167fddf252ad1be2c89b69c2b068fc378daa952ba7f163c4a11628f55a4df523b3ef836040516106cd91815260200190565b60405180910390a3505050565b602081526000825180602084015260005b8181101561070857602081860181015160408684010152016106eb565b506000604082850101526040601f19601f83011684010191505092915050565b80356001600160a01b038116811461073f57600080fd5b919050565b6000806040838503121561075757600080fd5b61076083610728565b946020939093013593505050565b60008060006060848603121561078357600080fd5b61078c84610728565b925061079a60208501610728565b929592945050506040919091013590565b6000602082840312156107bd57600080fd5b6107c682610728565b9392505050565b600080604083850312156107e057600080fd5b6107e983610728565b91506107f760208401610728565b90509250929050565b600181811c9082168061081457607f821691505b60208210810361083457634e487b7160e01b600052602260045260246000fd5b50919050565b634e487b7160e01b600052601160045260246000fd5b6001815b600184111561088b5780850481111561086f5761086f61083a565b600184161561087d57908102905b60019390931c928002610854565b935093915050565b6000826108a257506001610273565b816108af57506000610273565b81600181146108c557600281146108cf576108eb565b6001915050610273565b60ff8411156108e0576108e061083a565b50506001821b610273565b5060208310610133831016604e8410600b841016171561090e575081810a610273565b61091b6000198484610850565b806000190482111561092f5761092f61083a565b029392505050565b60006107c660ff841683610893565b80820281158282048414176102735761027361083a565b808201808211156102735761027361083a56fea264697066735822122096f2c3e342f5278127ee8e56a819823c345e5bfe8cb454cc2754ba84d44ab8e064736f6c634300081c0033",
  "linkReferences": {},
  "deployedLinkReferences": {}
}