{
  "_format": "hh-sol-artifact-1",
  "contractName": "TokenFarm",
  "sourceName": "contracts/TokenFarm.sol",
  "abi": [
    {
      "inputs": [
        {
          "internalType": "contract DappToken",
          "name": "_dappToken",
          "type": "address"
        },
        {
          "internalType": "contract DaiToken",
          "name": "_daiToken",
          "type": "address"
        }
      ],
      "stateMutability": "nonpayable",
      "type": "constructor"
    },
    {
      "inputs": [],
      "name": "ReentrancyGuardReentrantCall",
      "type": "error"
    },
    {
      "inputs": [],
      "name": "daiToken",
      "outputs": [
        {
          "internalType": "contract DaiToken",
          "name": "",
          "type": "address"
        }
      ],
      "stateMutability": "view",
      "type": "function"
    },
    {
      "inputs": [],
      "name": "dappToken",
      "outputs": [
        {
          "internalType": "contract DappToken",
          "name": "",
          "type": "address"
        }
      ],
      "stateMutability": "view",
      "type": "function"
    },
    {
      "inputs": [
        {
          "internalType": "address",
          "name": "",
          "type": "address"
        }
      ],
      "name": "depositStart",
      "outputs": [
        {
          "internalType": "uint256",
          "name": "",
          "type": "uint256"
        }
      ],
      "stateMutability": "view",
      "type": "function"
    },
    {
      "inputs": [],
      "name": "getBonus",
      "outputs": [
        {
          "internalType": "uint256",
          "name": "",
          "type": "uint256"
        }
      ],
      "stateMutability": "view",
      "type": "function"
    },
    {
      "inputs": [
        {
          "internalType": "address",
          "name": "",
          "type": "address"
        }
      ],
      "name": "hasStaked",
      "outputs": [
        {
          "internalType": "bool",
          "name": "",
          "type": "bool"
        }
      ],
      "stateMutability": "view",
      "type": "function"
    },
    {
      "inputs": [
        {
          "internalType": "address",
          "name": "",
          "type": "address"
        }
      ],
      "name": "isStaking",
      "outputs": [
        {
          "internalType": "bool",
          "name": "",
          "type": "bool"
        }
      ],
      "stateMutability": "view",
      "type": "function"
    },
    {
      "inputs": [],
      "name": "issueTokens",
      "outputs": [],
      "stateMutability": "nonpayable",
      "type": "function"
    },
    {
      "inputs": [],
      "name": "name",
      "outputs": [
        {
          "internalType": "string",
          "name": "",
          "type": "string"
        }
      ],
      "stateMutability": "view",
      "type": "function"
    },
    {
      "inputs": [],
      "name": "owner",
      "outputs": [
        {
          "internalType": "address",
          "name": "",
          "type": "address"
        }
      ],
      "stateMutability": "view",
      "type": "function"
    },
    {
      "inputs": [
        {
          "internalType": "uint256",
          "name": "_amount",
          "type": "uint256"
        }
      ],
      "name": "stakeTokens",
      "outputs": [],
      "stateMutability": "nonpayable",
      "type": "function"
    },
    {
      "inputs": [
        {
          "internalType": "uint256",
          "name": "",
          "type": "uint256"
        }
      ],
      "name": "stakers",
      "outputs": [
        {
          "internalType": "address",
          "name": "",
          "type": "address"
        }
      ],
      "stateMutability": "view",
      "type": "function"
    },
    {
      "inputs": [
        {
          "internalType": "address",
          "name": "",
          "type": "address"
        }
      ],
      "name": "stakingBalance",
      "outputs": [
        {
          "internalType": "uint256",
          "name": "",
          "type": "uint256"
        }
      ],
      "stateMutability": "view",
      "type": "function"
    },
    {
      "inputs": [
        {
          "internalType": "address",
          "name": "_to",
          "type": "address"
        },
        {
          "internalType": "uint256",
          "name": "_amount",
          "type": "uint256"
        }
      ],
      "name": "transferToken",
      "outputs": [
        {
          "internalType": "bool",
          "name": "success",
          "type": "bool"
        }
      ],
      "stateMutability": "payable",
      "type": "function"
    },
    {
      "inputs": [],
      "name": "unstakeTokens",
      "outputs": [],
      "stateMutability": "nonpayable",
      "type": "function"
    },
    {
      "inputs": [
        {
          "internalType": "address",
          "name": "",
          "type": "address"
        }
      ],
      "name": "unstakingBonus",
      "outputs": [
        {
          "internalType": "uint256",
          "name": "",
          "type": "uint256"
        }
      ],
      "stateMutability": "view",
      "type": "function"
    }
  ],
  "bytecode": "0x60c0604052600f60809081526e4461707020546f6b656e204661726d60881b60a05260019061002e908261013f565b5034801561003b57600080fd5b50604051610f29380380610f2983398101604081905261005a91610215565b6001600055600380546001600160a01b039384166001600160a01b031991821617909155600480549290931691811691909117909155600280549091163317905561024f565b634e487b7160e01b600052604160045260246000fd5b600181811c908216806100ca57607f821691505b6020821081036100ea57634e487b7160e01b600052602260045260246000fd5b50919050565b601f82111561013a57806000526020600020601f840160051c810160208510156101175750805b601f840160051c820191505b818110156101375760008155600101610123565b50505b505050565b81516001600160401b03811115610158576101586100a0565b61016c8161016684546100b6565b846100f0565b6020601f8211600181146101a057600083156101885750848201515b600019600385901b1c1916600184901b178455610137565b600084815260208120601f198516915b828110156101d057878501518255602094850194600190920191016101b0565b50848210156101ee5786840151600019600387901b60f8161c191681555b50505050600190811b01905550565b6001600160a01b038116811461021257600080fd5b50565b6000806040838503121561022857600080fd5b8251610233816101fd565b6020840151909250610244816101fd565b809150509250929050565b610ccb8061025e6000396000f3fe6080604052600436106100e85760003560e01c80638bdff1611161008a578063be22f54611610059578063be22f54614610299578063c93c8f34146102b9578063fd5e6dd1146102e9578063ff87930a1461030957600080fd5b80638bdff161146102155780638da5cb5b14610237578063a5ce413b14610257578063b257d7ce1461026c57600080fd5b80635eb186f8116100c65780635eb186f81461017657806360ab5852146101ae5780636f49712b146101c55780637547c7a3146101f557600080fd5b806306fdde03146100ed5780631072cbea1461011857806345bc78ab1461013b575b600080fd5b3480156100f957600080fd5b50610102610336565b60405161010f9190610adf565b60405180910390f35b61012b610126366004610b49565b6103c4565b604051901515815260200161010f565b34801561014757600080fd5b50610168610156366004610b73565b60066020526000908152604090205481565b60405190815260200161010f565b34801561018257600080fd5b50600354610196906001600160a01b031681565b6040516001600160a01b03909116815260200161010f565b3480156101ba57600080fd5b506101c3610530565b005b3480156101d157600080fd5b5061012b6101e0366004610b73565b60086020526000908152604090205460ff1681565b34801561020157600080fd5b506101c3610210366004610b95565b6106d8565b34801561022157600080fd5b50336000908152600a6020526040902054610168565b34801561024357600080fd5b50600254610196906001600160a01b031681565b34801561026357600080fd5b506101c3610873565b34801561027857600080fd5b50610168610287366004610b73565b600a6020526000908152604090205481565b3480156102a557600080fd5b50600454610196906001600160a01b031681565b3480156102c557600080fd5b5061012b6102d4366004610b73565b60076020526000908152604090205460ff1681565b3480156102f557600080fd5b50610196610304366004610b95565b610ab5565b34801561031557600080fd5b50610168610324366004610b73565b60096020526000908152604090205481565b6001805461034390610bae565b80601f016020809104026020016040519081016040528092919081815260200182805461036f90610bae565b80156103bc5780601f10610391576101008083540402835291602001916103bc565b820191906000526020600020905b81548152906001019060200180831161039f57829003601f168201915b505050505081565b6001600160a01b03821660009081526008602052604081205460ff1615156001146104455760405162461bcd60e51b815260206004820152602660248201527f54686973206163636f756e74206973206e6f7420696e207468697320746f6b656044820152656e206661726d60d01b60648201526084015b60405180910390fd5b600082116104a75760405162461bcd60e51b815260206004820152602960248201527f5472616e73666572206d6f6e6579206e6565647320746f20626520677265617460448201526806572207468616e20360bc1b606482015260840161043c565b6003546040516323b872dd60e01b81523360048201526001600160a01b03858116602483015260448201859052909116906323b872dd906064016020604051808303816000875af1158015610500573d6000803e3d6000fd5b505050506040513d601f19601f820116820180604052508101906105249190610be8565b50600190505b92915050565b6002546001600160a01b0316331461058a5760405162461bcd60e51b815260206004820152601860248201527f63616c6c6572206d75737420626520746865206f776e65720000000000000000604482015260640161043c565b60005b6005548110156106d5576000600582815481106105ac576105ac610c0a565b60009182526020808320909101546001600160a01b0316808352600690915260409091205490915080156106cb5760035460405163a9059cbb60e01b81526001600160a01b038481166004830152602482018490529091169063a9059cbb906044016020604051808303816000875af115801561062d573d6000803e3d6000fd5b505050506040513d601f19601f820116820180604052508101906106519190610be8565b5060035460405163095ea7b360e01b81526001600160a01b038481166004830152602482018490529091169063095ea7b3906044016020604051808303816000875af11580156106a5573d6000803e3d6000fd5b505050506040513d601f19601f820116820180604052508101906106c99190610be8565b505b505060010161058d565b50565b6000811161071d5760405162461bcd60e51b81526020600482015260126024820152710616d6f756e742063616e6e6f7420626520360741b604482015260640161043c565b600480546040516323b872dd60e01b81523392810192909252306024830152604482018390526001600160a01b0316906323b872dd906064016020604051808303816000875af1158015610775573d6000803e3d6000fd5b505050506040513d601f19601f820116820180604052508101906107999190610be8565b50336000908152600660205260409020546107b5908290610c36565b3360009081526006602090815260408083209390935560079052205460ff1661081b57600580546001810182556000919091527f036b6384b5eca791c62761152d0c79bb0604c104a5fb6f4eb0703f3154bb3db00180546001600160a01b031916331790555b3360009081526008602090815260408083208054600160ff19918216811790925560078452828520805490911690911790556009909152902054610860904290610c36565b3360009081526009602052604090205550565b33600090815260066020526040902054806108d05760405162461bcd60e51b815260206004820152601b60248201527f7374616b696e672062616c616e63652063616e6e6f7420626520300000000000604482015260640161043c565b6004805460405163a9059cbb60e01b81523392810192909252602482018390526001600160a01b03169063a9059cbb906044016020604051808303816000875af1158015610922573d6000803e3d6000fd5b505050506040513d601f19601f820116820180604052508101906109469190610be8565b50336000908152600960205260408120546109619042610c49565b3360009081526006602090815260408083208390556009825280832083905560089091528120805460ff19169055909150819060646109a08386610c5c565b6109aa9190610c73565b336000908152600a602052604090819020829055600354600254915163a9059cbb60e01b81526001600160a01b03928316600482015260248101889052929350169063a9059cbb906044016020604051808303816000875af1158015610a14573d6000803e3d6000fd5b505050506040513d601f19601f82011682018060405250810190610a389190610be8565b5060035460405163a9059cbb60e01b8152336004820152602481018390526001600160a01b039091169063a9059cbb906044016020604051808303816000875af1158015610a8a573d6000803e3d6000fd5b505050506040513d601f19601f82011682018060405250810190610aae9190610be8565b5050505050565b60058181548110610ac557600080fd5b6000918252602090912001546001600160a01b0316905081565b602081526000825180602084015260005b81811015610b0d5760208186018101516040868401015201610af0565b506000604082850101526040601f19601f83011684010191505092915050565b80356001600160a01b0381168114610b4457600080fd5b919050565b60008060408385031215610b5c57600080fd5b610b6583610b2d565b946020939093013593505050565b600060208284031215610b8557600080fd5b610b8e82610b2d565b9392505050565b600060208284031215610ba757600080fd5b5035919050565b600181811c90821680610bc257607f821691505b602082108103610be257634e487b7160e01b600052602260045260246000fd5b50919050565b600060208284031215610bfa57600080fd5b81518015158114610b8e57600080fd5b634e487b7160e01b600052603260045260246000fd5b634e487b7160e01b600052601160045260246000fd5b8082018082111561052a5761052a610c20565b8181038181111561052a5761052a610c20565b808202811582820484141761052a5761052a610c20565b600082610c9057634e487b7160e01b600052601260045260246000fd5b50049056fea2646970667358221220dfc0a8f9b3cec071059d9b6fb1a62914c0088051cf17abd581c6102f35ab638064736f6c634300081c0033",
  "linkReferences": {},
  "deployedLinkReferences": {}
}